{
  "_format": "hh-sol-artifact-1",
  "contractName": "PharmaTrack",
  "sourceName": "contracts/PharmaTrack.sol",
  "abi": [
    {
      "inputs": [],
      "stateMutability": "nonpayable",
      "type": "constructor"
    },
    {
      "inputs": [],
      "name": "AccessControlBadConfirmation",
      "type": "error"
    },
    {
      "inputs": [
        {
          "internalType": "address",
          "name": "account",
          "type": "address"
        },
        {
          "internalType": "bytes32",
          "name": "neededRole",
          "type": "bytes32"
        }
      ],
      "name": "AccessControlUnauthorizedAccount",
      "type": "error"
    },
    {
      "inputs": [
        {
          "internalType": "bytes32",
          "name": "batchId",
          "type": "bytes32"
        }
      ],
      "name": "BatchAlreadyExists",
      "type": "error"
    },
    {
      "inputs": [
        {
          "internalType": "bytes32",
          "name": "batchId",
          "type": "bytes32"
        }
      ],
      "name": "BatchNotFound",
      "type": "error"
    },
    {
      "inputs": [],
      "name": "EnforcedPause",
      "type": "error"
    },
    {
      "inputs": [],
      "name": "ExpectedPause",
      "type": "error"
    },
    {
      "inputs": [
        {
          "internalType": "uint256",
          "name": "expiryDate",
          "type": "uint256"
        }
      ],
      "name": "ExpiryInPast",
      "type": "error"
    },
    {
      "inputs": [
        {
          "internalType": "uint256",
          "name": "requested",
          "type": "uint256"
        },
        {
          "internalType": "uint256",
          "name": "available",
          "type": "uint256"
        }
      ],
      "name": "InsufficientTablets",
      "type": "error"
    },
    {
      "inputs": [],
      "name": "InvalidAmount",
      "type": "error"
    },
    {
      "inputs": [
        {
          "internalType": "address",
          "name": "caller",
          "type": "address"
        },
        {
          "internalType": "address",
          "name": "holder",
          "type": "address"
        }
      ],
      "name": "NotStripHolder",
      "type": "error"
    },
    {
      "inputs": [],
      "name": "ReentrancyGuardReentrantCall",
      "type": "error"
    },
    {
      "inputs": [
        {
          "internalType": "bytes32",
          "name": "stripId",
          "type": "bytes32"
        }
      ],
      "name": "StripAlreadyExists",
      "type": "error"
    },
    {
      "inputs": [
        {
          "internalType": "bytes32",
          "name": "stripId",
          "type": "bytes32"
        }
      ],
      "name": "StripNotFound",
      "type": "error"
    },
    {
      "inputs": [
        {
          "internalType": "bytes32",
          "name": "tokenId",
          "type": "bytes32"
        }
      ],
      "name": "TokenAlreadyExists",
      "type": "error"
    },
    {
      "inputs": [
        {
          "internalType": "bytes32",
          "name": "tokenId",
          "type": "bytes32"
        }
      ],
      "name": "TokenNotFound",
      "type": "error"
    },
    {
      "anonymous": false,
      "inputs": [
        {
          "indexed": true,
          "internalType": "bytes32",
          "name": "batchId",
          "type": "bytes32"
        },
        {
          "indexed": false,
          "internalType": "address",
          "name": "manufacturer",
          "type": "address"
        },
        {
          "indexed": false,
          "internalType": "uint256",
          "name": "timestamp",
          "type": "uint256"
        }
      ],
      "name": "BatchRegistered",
      "type": "event"
    },
    {
      "anonymous": false,
      "inputs": [
        {
          "indexed": true,
          "internalType": "bytes32",
          "name": "batchId",
          "type": "bytes32"
        },
        {
          "indexed": false,
          "internalType": "address",
          "name": "from",
          "type": "address"
        },
        {
          "indexed": false,
          "internalType": "address",
          "name": "to",
          "type": "address"
        },
        {
          "indexed": false,
          "internalType": "string",
          "name": "role",
          "type": "string"
        }
      ],
      "name": "BatchTransferred",
      "type": "event"
    },
    {
      "anonymous": false,
      "inputs": [
        {
          "indexed": false,
          "internalType": "address",
          "name": "account",
          "type": "address"
        }
      ],
      "name": "Paused",
      "type": "event"
    },
    {
      "anonymous": false,
      "inputs": [
        {
          "indexed": true,
          "internalType": "bytes32",
          "name": "role",
          "type": "bytes32"
        },
        {
          "indexed": true,
          "internalType": "bytes32",
          "name": "previousAdminRole",
          "type": "bytes32"
        },
        {
          "indexed": true,
          "internalType": "bytes32",
          "name": "newAdminRole",
          "type": "bytes32"
        }
      ],
      "name": "RoleAdminChanged",
      "type": "event"
    },
    {
      "anonymous": false,
      "inputs": [
        {
          "indexed": true,
          "internalType": "bytes32",
          "name": "role",
          "type": "bytes32"
        },
        {
          "indexed": true,
          "internalType": "address",
          "name": "account",
          "type": "address"
        },
        {
          "indexed": true,
          "internalType": "address",
          "name": "sender",
          "type": "address"
        }
      ],
      "name": "RoleGranted",
      "type": "event"
    },
    {
      "anonymous": false,
      "inputs": [
        {
          "indexed": true,
          "internalType": "bytes32",
          "name": "role",
          "type": "bytes32"
        },
        {
          "indexed": true,
          "internalType": "address",
          "name": "account",
          "type": "address"
        },
        {
          "indexed": true,
          "internalType": "address",
          "name": "sender",
          "type": "address"
        }
      ],
      "name": "RoleRevoked",
      "type": "event"
    },
    {
      "anonymous": false,
      "inputs": [
        {
          "indexed": true,
          "internalType": "bytes32",
          "name": "tokenId",
          "type": "bytes32"
        },
        {
          "indexed": false,
          "internalType": "bytes32",
          "name": "stripId",
          "type": "bytes32"
        },
        {
          "indexed": false,
          "internalType": "uint256",
          "name": "tabletsSold",
          "type": "uint256"
        }
      ],
      "name": "SaleTokenCreated",
      "type": "event"
    },
    {
      "anonymous": false,
      "inputs": [
        {
          "indexed": true,
          "internalType": "bytes32",
          "name": "stripId",
          "type": "bytes32"
        },
        {
          "indexed": false,
          "internalType": "bytes32",
          "name": "batchId",
          "type": "bytes32"
        },
        {
          "indexed": false,
          "internalType": "uint256",
          "name": "stripNumber",
          "type": "uint256"
        }
      ],
      "name": "StripRegistered",
      "type": "event"
    },
    {
      "anonymous": false,
      "inputs": [
        {
          "indexed": false,
          "internalType": "address",
          "name": "account",
          "type": "address"
        }
      ],
      "name": "Unpaused",
      "type": "event"
    },
    {
      "inputs": [],
      "name": "DEFAULT_ADMIN_ROLE",
      "outputs": [
        {
          "internalType": "bytes32",
          "name": "",
          "type": "bytes32"
        }
      ],
      "stateMutability": "view",
      "type": "function"
    },
    {
      "inputs": [],
      "name": "DISTRIBUTOR_ROLE",
      "outputs": [
        {
          "internalType": "bytes32",
          "name": "",
          "type": "bytes32"
        }
      ],
      "stateMutability": "view",
      "type": "function"
    },
    {
      "inputs": [],
      "name": "MANUFACTURER_ROLE",
      "outputs": [
        {
          "internalType": "bytes32",
          "name": "",
          "type": "bytes32"
        }
      ],
      "stateMutability": "view",
      "type": "function"
    },
    {
      "inputs": [],
      "name": "PHARMACY_ROLE",
      "outputs": [
        {
          "internalType": "bytes32",
          "name": "",
          "type": "bytes32"
        }
      ],
      "stateMutability": "view",
      "type": "function"
    },
    {
      "inputs": [
        {
          "internalType": "address",
          "name": "wallet",
          "type": "address"
        },
        {
          "internalType": "bytes32",
          "name": "role",
          "type": "bytes32"
        }
      ],
      "name": "assignRole",
      "outputs": [],
      "stateMutability": "nonpayable",
      "type": "function"
    },
    {
      "inputs": [
        {
          "internalType": "bytes32",
          "name": "",
          "type": "bytes32"
        }
      ],
      "name": "batchExists",
      "outputs": [
        {
          "internalType": "bool",
          "name": "",
          "type": "bool"
        }
      ],
      "stateMutability": "view",
      "type": "function"
    },
    {
      "inputs": [
        {
          "internalType": "bytes32",
          "name": "",
          "type": "bytes32"
        }
      ],
      "name": "batches",
      "outputs": [
        {
          "internalType": "bytes32",
          "name": "batchId",
          "type": "bytes32"
        },
        {
          "internalType": "string",
          "name": "medicineName",
          "type": "string"
        },
        {
          "internalType": "address",
          "name": "manufacturer",
          "type": "address"
        },
        {
          "internalType": "uint256",
          "name": "manufactureDate",
          "type": "uint256"
        },
        {
          "internalType": "uint256",
          "name": "expiryDate",
          "type": "uint256"
        },
        {
          "internalType": "uint256",
          "name": "totalStrips",
          "type": "uint256"
        },
        {
          "internalType": "bool",
          "name": "isActive",
          "type": "bool"
        }
      ],
      "stateMutability": "view",
      "type": "function"
    },
    {
      "inputs": [
        {
          "internalType": "bytes32",
          "name": "stripId",
          "type": "bytes32"
        },
        {
          "internalType": "uint256",
          "name": "tabletsSold",
          "type": "uint256"
        }
      ],
      "name": "generateSaleToken",
      "outputs": [
        {
          "internalType": "bytes32",
          "name": "tokenId",
          "type": "bytes32"
        }
      ],
      "stateMutability": "nonpayable",
      "type": "function"
    },
    {
      "inputs": [
        {
          "internalType": "bytes32",
          "name": "batchId",
          "type": "bytes32"
        }
      ],
      "name": "getBatchStrips",
      "outputs": [
        {
          "internalType": "bytes32[]",
          "name": "",
          "type": "bytes32[]"
        }
      ],
      "stateMutability": "view",
      "type": "function"
    },
    {
      "inputs": [
        {
          "internalType": "bytes32",
          "name": "role",
          "type": "bytes32"
        }
      ],
      "name": "getRoleAdmin",
      "outputs": [
        {
          "internalType": "bytes32",
          "name": "",
          "type": "bytes32"
        }
      ],
      "stateMutability": "view",
      "type": "function"
    },
    {
      "inputs": [
        {
          "internalType": "bytes32",
          "name": "role",
          "type": "bytes32"
        },
        {
          "internalType": "address",
          "name": "account",
          "type": "address"
        }
      ],
      "name": "grantRole",
      "outputs": [],
      "stateMutability": "nonpayable",
      "type": "function"
    },
    {
      "inputs": [
        {
          "internalType": "bytes32",
          "name": "role",
          "type": "bytes32"
        },
        {
          "internalType": "address",
          "name": "account",
          "type": "address"
        }
      ],
      "name": "hasRole",
      "outputs": [
        {
          "internalType": "bool",
          "name": "",
          "type": "bool"
        }
      ],
      "stateMutability": "view",
      "type": "function"
    },
    {
      "inputs": [],
      "name": "pause",
      "outputs": [],
      "stateMutability": "nonpayable",
      "type": "function"
    },
    {
      "inputs": [],
      "name": "paused",
      "outputs": [
        {
          "internalType": "bool",
          "name": "",
          "type": "bool"
        }
      ],
      "stateMutability": "view",
      "type": "function"
    },
    {
      "inputs": [
        {
          "internalType": "bytes32",
          "name": "batchId",
          "type": "bytes32"
        },
        {
          "internalType": "string",
          "name": "medicineName",
          "type": "string"
        },
        {
          "internalType": "uint256",
          "name": "expiryDate",
          "type": "uint256"
        },
        {
          "internalType": "uint256",
          "name": "totalStrips",
          "type": "uint256"
        }
      ],
      "name": "registerBatch",
      "outputs": [],
      "stateMutability": "nonpayable",
      "type": "function"
    },
    {
      "inputs": [
        {
          "internalType": "bytes32",
          "name": "stripId",
          "type": "bytes32"
        },
        {
          "internalType": "bytes32",
          "name": "batchId",
          "type": "bytes32"
        },
        {
          "internalType": "uint256",
          "name": "stripNumber",
          "type": "uint256"
        },
        {
          "internalType": "uint256",
          "name": "tabletsTotal",
          "type": "uint256"
        }
      ],
      "name": "registerStrip",
      "outputs": [],
      "stateMutability": "nonpayable",
      "type": "function"
    },
    {
      "inputs": [
        {
          "internalType": "bytes32",
          "name": "role",
          "type": "bytes32"
        },
        {
          "internalType": "address",
          "name": "callerConfirmation",
          "type": "address"
        }
      ],
      "name": "renounceRole",
      "outputs": [],
      "stateMutability": "nonpayable",
      "type": "function"
    },
    {
      "inputs": [
        {
          "internalType": "address",
          "name": "wallet",
          "type": "address"
        },
        {
          "internalType": "bytes32",
          "name": "role",
          "type": "bytes32"
        }
      ],
      "name": "revokeActorRole",
      "outputs": [],
      "stateMutability": "nonpayable",
      "type": "function"
    },
    {
      "inputs": [
        {
          "internalType": "bytes32",
          "name": "role",
          "type": "bytes32"
        },
        {
          "internalType": "address",
          "name": "account",
          "type": "address"
        }
      ],
      "name": "revokeRole",
      "outputs": [],
      "stateMutability": "nonpayable",
      "type": "function"
    },
    {
      "inputs": [
        {
          "internalType": "bytes32",
          "name": "",
          "type": "bytes32"
        }
      ],
      "name": "saleTokens",
      "outputs": [
        {
          "internalType": "bytes32",
          "name": "tokenId",
          "type": "bytes32"
        },
        {
          "internalType": "bytes32",
          "name": "stripId",
          "type": "bytes32"
        },
        {
          "internalType": "address",
          "name": "pharmacy",
          "type": "address"
        },
        {
          "internalType": "uint256",
          "name": "tabletsSold",
          "type": "uint256"
        },
        {
          "internalType": "uint256",
          "name": "timestamp",
          "type": "uint256"
        }
      ],
      "stateMutability": "view",
      "type": "function"
    },
    {
      "inputs": [
        {
          "internalType": "bytes32",
          "name": "",
          "type": "bytes32"
        }
      ],
      "name": "stripExists",
      "outputs": [
        {
          "internalType": "bool",
          "name": "",
          "type": "bool"
        }
      ],
      "stateMutability": "view",
      "type": "function"
    },
    {
      "inputs": [
        {
          "internalType": "bytes32",
          "name": "",
          "type": "bytes32"
        }
      ],
      "name": "strips",
      "outputs": [
        {
          "internalType": "bytes32",
          "name": "stripId",
          "type": "bytes32"
        },
        {
          "internalType": "bytes32",
          "name": "batchId",
          "type": "bytes32"
        },
        {
          "internalType": "uint256",
          "name": "stripNumber",
          "type": "uint256"
        },
        {
          "internalType": "uint256",
          "name": "tabletsTotal",
          "type": "uint256"
        },
        {
          "internalType": "uint256",
          "name": "tabletsRemaining",
          "type": "uint256"
        },
        {
          "internalType": "address",
          "name": "currentHolder",
          "type": "address"
        },
        {
          "internalType": "bool",
          "name": "isActive",
          "type": "bool"
        }
      ],
      "stateMutability": "view",
      "type": "function"
    },
    {
      "inputs": [
        {
          "internalType": "bytes4",
          "name": "interfaceId",
          "type": "bytes4"
        }
      ],
      "name": "supportsInterface",
      "outputs": [
        {
          "internalType": "bool",
          "name": "",
          "type": "bool"
        }
      ],
      "stateMutability": "view",
      "type": "function"
    },
    {
      "inputs": [
        {
          "internalType": "bytes32",
          "name": "",
          "type": "bytes32"
        }
      ],
      "name": "tokenExists",
      "outputs": [
        {
          "internalType": "bool",
          "name": "",
          "type": "bool"
        }
      ],
      "stateMutability": "view",
      "type": "function"
    },
    {
      "inputs": [
        {
          "internalType": "bytes32",
          "name": "batchId",
          "type": "bytes32"
        },
        {
          "internalType": "address",
          "name": "distributor",
          "type": "address"
        }
      ],
      "name": "transferToDistributor",
      "outputs": [],
      "stateMutability": "nonpayable",
      "type": "function"
    },
    {
      "inputs": [
        {
          "internalType": "bytes32",
          "name": "batchId",
          "type": "bytes32"
        },
        {
          "internalType": "address",
          "name": "pharmacy",
          "type": "address"
        }
      ],
      "name": "transferToPharmacy",
      "outputs": [],
      "stateMutability": "nonpayable",
      "type": "function"
    },
    {
      "inputs": [],
      "name": "unpause",
      "outputs": [],
      "stateMutability": "nonpayable",
      "type": "function"
    },
    {
      "inputs": [
        {
          "internalType": "bytes32",
          "name": "tokenId",
          "type": "bytes32"
        }
      ],
      "name": "verifyToken",
      "outputs": [
        {
          "components": [
            {
              "internalType": "bytes32",
              "name": "tokenId",
              "type": "bytes32"
            },
            {
              "internalType": "bytes32",
              "name": "stripId",
              "type": "bytes32"
            },
            {
              "internalType": "address",
              "name": "pharmacy",
              "type": "address"
            },
            {
              "internalType": "uint256",
              "name": "tabletsSold",
              "type": "uint256"
            },
            {
              "internalType": "uint256",
              "name": "timestamp",
              "type": "uint256"
            }
          ],
          "internalType": "struct PharmaTrack.SaleToken",
          "name": "",
          "type": "tuple"
        },
        {
          "components": [
            {
              "internalType": "bytes32",
              "name": "stripId",
              "type": "bytes32"
            },
            {
              "internalType": "bytes32",
              "name": "batchId",
              "type": "bytes32"
            },
            {
              "internalType": "uint256",
              "name": "stripNumber",
              "type": "uint256"
            },
            {
              "internalType": "uint256",
              "name": "tabletsTotal",
              "type": "uint256"
            },
            {
              "internalType": "uint256",
              "name": "tabletsRemaining",
              "type": "uint256"
            },
            {
              "internalType": "address",
              "name": "currentHolder",
              "type": "address"
            },
            {
              "internalType": "bool",
              "name": "isActive",
              "type": "bool"
            }
          ],
          "internalType": "struct PharmaTrack.Strip",
          "name": "",
          "type": "tuple"
        },
        {
          "components": [
            {
              "internalType": "bytes32",
              "name": "batchId",
              "type": "bytes32"
            },
            {
              "internalType": "string",
              "name": "medicineName",
              "type": "string"
            },
            {
              "internalType": "address",
              "name": "manufacturer",
              "type": "address"
            },
            {
              "internalType": "uint256",
              "name": "manufactureDate",
              "type": "uint256"
            },
            {
              "internalType": "uint256",
              "name": "expiryDate",
              "type": "uint256"
            },
            {
              "internalType": "uint256",
              "name": "totalStrips",
              "type": "uint256"
            },
            {
              "internalType": "bool",
              "name": "isActive",
              "type": "bool"
            }
          ],
          "internalType": "struct PharmaTrack.Batch",
          "name": "",
          "type": "tuple"
        }
      ],
      "stateMutability": "view",
      "type": "function"
    }
  ],
  "bytecode": "0x608060405234801561001057600080fd5b5060017f9b779b17422d0df92223018b32b4d1fa46e071723d6817e2486d003becc55f0055610040600033610046565b506100f2565b6000828152602081815260408083206001600160a01b038516845290915281205460ff166100e8576000838152602081815260408083206001600160a01b03861684529091529020805460ff191660011790556100a03390565b6001600160a01b0316826001600160a01b0316847f2f8788117e7eff1d82e926ec794901d17c78024a50270940304540a733656f0d60405160405180910390a45060016100ec565b5060005b92915050565b611d4c80620001026000396000f3fe608060405234801561001057600080fd5b50600436106101c45760003560e01c806391d14854116100f9578063c81e25ab11610097578063ecd144a711610071578063ecd144a7146104d4578063ed6ba3ff146104f7578063f0bd87cc14610517578063f0c58ea71461053e57600080fd5b8063c81e25ab14610488578063d547741f146104ae578063da358db6146104c157600080fd5b8063a217fddf116100d3578063a217fddf146103bd578063b2740996146103c5578063b675065814610443578063be8dda7a1461046657600080fd5b806391d14854146102fa578063965288b01461030d5780639fec5a931461032257600080fd5b806336568abe116101665780635c975abb116101405780635c975abb146102c15780638456cb59146102cc5780638a9907f6146102d45780638e0ce239146102e757600080fd5b806336568abe146102835780633f4ba83a1461029657806356fa44a61461029e57600080fd5b80631d9486de116101a25780631d9486de14610219578063248a9ca31461022c578063260599671461025d5780632f2ff15d1461027057600080fd5b806301ffc9a7146101c95780630cdb7925146101f15780630ea6689c14610206575b600080fd5b6101dc6101d73660046117c1565b610565565b60405190151581526020015b60405180910390f35b6102046101ff36600461180e565b61059c565b005b610204610214366004611838565b6105b7565b61020461022736600461180e565b6107b3565b61024f61023a3660046118c3565b60009081526020819052604090206001015490565b6040519081526020016101e8565b61020461026b3660046118dc565b6107c8565b61020461027e36600461190e565b6109d2565b61020461029136600461190e565b6109f7565b610204610a2f565b6101dc6102ac3660046118c3565b60076020526000908152604090205460ff1681565b60015460ff166101dc565b610204610a45565b6102046102e236600461190e565b610a58565b61024f6102f536600461193a565b610c2a565b6101dc61030836600461190e565b610f56565b61024f600080516020611cf783398151915281565b61037d6103303660046118c3565b60036020819052600091825260409091208054600182015460028301549383015460048401546005909401549294919391929091906001600160a01b03811690600160a01b900460ff1687565b60408051978852602088019690965294860193909352606085019190915260808401526001600160a01b031660a0830152151560c082015260e0016101e8565b61024f600081565b61040d6103d33660046118c3565b600460208190526000918252604090912080546001820154600283015460038401549390940154919390926001600160a01b039091169185565b6040805195865260208601949094526001600160a01b03909216928401929092526060830191909152608082015260a0016101e8565b6101dc6104513660046118c3565b60066020526000908152604090205460ff1681565b6104796104743660046118c3565b610f7f565b6040516101e893929190611a09565b61049b6104963660046118c3565b6111f3565b6040516101e89796959493929190611aae565b6102046104bc36600461190e565b6112c4565b6102046104cf36600461190e565b6112e9565b6101dc6104e23660046118c3565b60056020526000908152604090205460ff1681565b61050a6105053660046118c3565b6114a2565b6040516101e89190611afc565b61024f7f85faced7bde13e1a7dad704b895f006e704f207617d68166b31ba2d79624862d81565b61024f7f6d960d3aada907633a701143a0c8a0657b9ed1e77b6d2d8b56e5d8813982e10c81565b60006001600160e01b03198216637965db0b60e01b148061059657506301ffc9a760e01b6001600160e01b03198316145b92915050565b60006105a781611537565b6105b18284611541565b50505050565b600080516020611cf78339815191526105cf81611537565b6105d76115b4565b60008681526005602052604090205460ff161561060f576040516354231b5160e11b8152600481018790526024015b60405180910390fd5b42831161063257604051632e06d23960e21b815260048101849052602401610606565b811580610640575061271082115b1561065e5760405163162908e360e11b815260040160405180910390fd5b6040518060e0016040528087815260200186868080601f0160208091040260200160405190810160405280939291908181526020018383808284376000920182905250938552505033602080850191909152426040808601919091526060850189905260808501889052600160a09095018590528b845260028252909220845181559184015191928301916106f4915082611bde565b506040828101516002830180546001600160a01b039092166001600160a01b0319909216919091179055606083015160038301556080830151600483015560a083015160058084019190915560c0909301516006909201805492151560ff199384161790556000898152602093845281902080549092166001179091558051338152429281019290925287917f4dceea5348973fc958dcff4905cf384ab41375fa321a18f0af9f451b06a5318d910160405180910390a2505050505050565b60006107be81611537565b6105b182846115da565b600080516020611cf78339815191526107e081611537565b6107e86115b4565b60008481526005602052604090205460ff1661081a576040516301bccb9360e01b815260048101859052602401610606565b60008481526002602052604090206006015460ff1661084f576040516301bccb9360e01b815260048101859052602401610606565b60008581526006602052604090205460ff161561088257604051636fd0cda960e11b815260048101869052602401610606565b826000036108a35760405163162908e360e11b815260040160405180910390fd5b816000036108c45760405163162908e360e11b815260040160405180910390fd5b6040805160e081018252868152602080820187815282840187815260608401878152608085018881523360a08701908152600160c0880181815260008f81526003808a528b82209a518b5597518a840155955160028a015593519588019590955590516004870155516005909501805491511515600160a01b026001600160a81b03199092166001600160a01b0396909616959095171790935560068252838320805460ff191682179055878352600882528383208054918201815583529120018690555185907fd894c5ee23a956efa61f6f95d8b7bde46e7aed1ce69cb0a62faf7afd7ec377c3906109c39087908790918252602082015260400190565b60405180910390a25050505050565b6000828152602081905260409020600101546109ed81611537565b6105b183836115da565b6001600160a01b0381163314610a205760405163334bd91960e11b815260040160405180910390fd5b610a2a8282611541565b505050565b6000610a3a81611537565b610a42611664565b50565b6000610a5081611537565b610a426116b6565b7f85faced7bde13e1a7dad704b895f006e704f207617d68166b31ba2d79624862d610a8281611537565b610a8a6115b4565b60008381526005602052604090205460ff16610abc576040516301bccb9360e01b815260048101849052602401610606565b60008381526002602052604090206006015460ff16610af1576040516301bccb9360e01b815260048101849052602401610606565b610b1b7f6d960d3aada907633a701143a0c8a0657b9ed1e77b6d2d8b56e5d8813982e10c83610f56565b610b385760405163162908e360e11b815260040160405180910390fd5b6000838152600860205260408120905b8154811015610bbb578360036000848481548110610b6857610b68611c9e565b9060005260206000200154815260200190815260200160002060050160006101000a8154816001600160a01b0302191690836001600160a01b031602179055508080610bb390611cca565b915050610b48565b50604080513381526001600160a01b0385166020820152606091810182905260089181019190915267504841524d41435960c01b608082015284907f8bbe53b858f06d598ac4c76da444503f3af076070abfe0f19cfd2c9de81154749060a0015b60405180910390a250505050565b60007f6d960d3aada907633a701143a0c8a0657b9ed1e77b6d2d8b56e5d8813982e10c610c5681611537565b610c5e6115b4565b610c666116f1565b60008481526006602052604090205460ff16610c9857604051631f32c96560e21b815260048101859052602401610606565b60008481526003602052604090206005810154600160a01b900460ff16610cd557604051631f32c96560e21b815260048101869052602401610606565b60058101546001600160a01b03163314610d19576005810154604051631ef07fc960e21b81523360048201526001600160a01b039091166024820152604401610606565b83600003610d3a5760405163162908e360e11b815260040160405180910390fd5b8060040154841115610d6c5760048082015460405163dcc51ebb60e01b81529182018690526024820152604401610606565b6001810154600090815260026020526040902060048101544210610da957600481810154604051632e06d23960e21b815291820152602401610606565b60408051602081018890526bffffffffffffffffffffffff193360601b16918101919091524260548201526074810186905260940160408051601f1981840301815291815281516020928301206000818152600790935291205490945060ff1615610e2a576040516301ba3c2560e01b815260048101859052602401610606565b84826004016000828254610e3e9190611ce3565b90915550506004820154600003610e5f5760058201805460ff60a01b191690555b6040805160a081018252858152602080820189815233838501908152606084018a8152426080860190815260008b8152600480875288822097518855945160018089019190915593516002880180546001600160a01b0319166001600160a01b039092169190911790559151600387015551949092019390935560078252839020805460ff1916909217909155815188815290810187905285917f4d6636f269448eec285c400ad3296d6560f7a1af459f3f3387d1ebae6c3135c5910160405180910390a25050610f4f60017f9b779b17422d0df92223018b32b4d1fa46e071723d6817e2486d003becc55f0055565b5092915050565b6000918252602082815260408084206001600160a01b0393909316845291905290205460ff1690565b6040805160a080820183526000808352602080840182905283850182905260608085018390526080808601849052865160e0808201895285825281850186905281890186905281840186905281830186905281870186905260c080830187905289519182018a528682529481018490529788018590529187018490528601839052928501829052840152909160008481526007602052604090205460ff1661103d5760405163780830c760e11b815260048101859052602401610606565b6000848152600460208181526040808420815160a08082018452825482526001808401548387018190526002808601546001600160a01b0390811686890152600380880154606080890191909152978b0154608080890191909152938c52808a52888c20895160e08082018c528254825282880154828e0181905283870154838e0152938301549a82019a909a529b810154948c0194909452600590930154908116948a0194909452600160a01b90930460ff16151560c089015288529085528387208451938401909452835483528301805491969492939284019161112290611b56565b80601f016020809104026020016040519081016040528092919081815260200182805461114e90611b56565b801561119b5780601f106111705761010080835404028352916020019161119b565b820191906000526020600020905b81548152906001019060200180831161117e57829003601f168201915b505050918352505060028201546001600160a01b0316602082015260038201546040820152600482015460608201526005820154608082015260069091015460ff16151560a090910152929791965091945092505050565b6002602052600090815260409020805460018201805491929161121590611b56565b80601f016020809104026020016040519081016040528092919081815260200182805461124190611b56565b801561128e5780601f106112635761010080835404028352916020019161128e565b820191906000526020600020905b81548152906001019060200180831161127157829003601f168201915b505050600284015460038501546004860154600587015460069097015495966001600160a01b0390931695919450925060ff1687565b6000828152602081905260409020600101546112df81611537565b6105b18383611541565b600080516020611cf783398151915261130181611537565b6113096115b4565b60008381526005602052604090205460ff1661133b576040516301bccb9360e01b815260048101849052602401610606565b60008381526002602052604090206006015460ff16611370576040516301bccb9360e01b815260048101849052602401610606565b61139a7f85faced7bde13e1a7dad704b895f006e704f207617d68166b31ba2d79624862d83610f56565b6113b75760405163162908e360e11b815260040160405180910390fd5b6000838152600860205260408120905b815481101561143a5783600360008484815481106113e7576113e7611c9e565b9060005260206000200154815260200190815260200160002060050160006101000a8154816001600160a01b0302191690836001600160a01b03160217905550808061143290611cca565b9150506113c7565b50604080513381526001600160a01b03851660208201526060918101829052600b918101919091526a2224a9aa2924a12aaa27a960a91b608082015284907f8bbe53b858f06d598ac4c76da444503f3af076070abfe0f19cfd2c9de81154749060a001610c1c565b60008181526005602052604090205460609060ff166114d7576040516301bccb9360e01b815260048101839052602401610606565b6000828152600860209081526040918290208054835181840281018401909452808452909183018282801561152b57602002820191906000526020600020905b815481526020019060010190808311611517575b50505050509050919050565b610a42813361171f565b600061154d8383610f56565b156115ac576000838152602081815260408083206001600160a01b0386168085529252808320805460ff1916905551339286917ff6391f5c32d9c69d2a47ea670b442974b53935d1edc7fd64eb21e047a839171b9190a4506001610596565b506000610596565b60015460ff16156115d85760405163d93c066560e01b815260040160405180910390fd5b565b60006115e68383610f56565b6115ac576000838152602081815260408083206001600160a01b03861684529091529020805460ff1916600117905561161c3390565b6001600160a01b0316826001600160a01b0316847f2f8788117e7eff1d82e926ec794901d17c78024a50270940304540a733656f0d60405160405180910390a4506001610596565b61166c61175c565b6001805460ff191690557f5db9ee0a495bf2e6ff9c91a7834c1ba4fdd244a5e8aa4e537bd38aeae4b073aa335b6040516001600160a01b03909116815260200160405180910390a1565b6116be6115b4565b6001805460ff1916811790557f62e78cea01bee320cd4e420270b5ea74000d11b0c9f74754ebdbfc544b05a25833611699565b6116f961177f565b60027f9b779b17422d0df92223018b32b4d1fa46e071723d6817e2486d003becc55f0055565b6117298282610f56565b6117585760405163e2517d3f60e01b81526001600160a01b038216600482015260248101839052604401610606565b5050565b60015460ff166115d857604051638dfc202b60e01b815260040160405180910390fd5b7f9b779b17422d0df92223018b32b4d1fa46e071723d6817e2486d003becc55f00546002036115d857604051633ee5aeb560e01b815260040160405180910390fd5b6000602082840312156117d357600080fd5b81356001600160e01b0319811681146117eb57600080fd5b9392505050565b80356001600160a01b038116811461180957600080fd5b919050565b6000806040838503121561182157600080fd5b61182a836117f2565b946020939093013593505050565b60008060008060006080868803121561185057600080fd5b85359450602086013567ffffffffffffffff8082111561186f57600080fd5b818801915088601f83011261188357600080fd5b81358181111561189257600080fd5b8960208285010111156118a457600080fd5b9699602092909201985095966040810135965060600135945092505050565b6000602082840312156118d557600080fd5b5035919050565b600080600080608085870312156118f257600080fd5b5050823594602084013594506040840135936060013592509050565b6000806040838503121561192157600080fd5b82359150611931602084016117f2565b90509250929050565b6000806040838503121561194d57600080fd5b50508035926020909101359150565b6000815180845260005b8181101561198257602081850181015186830182015201611966565b506000602082860101526020601f19601f83011685010191505092915050565b805182526000602082015160e060208501526119c160e085018261195c565b905060018060a01b036040840151166040850152606083015160608501526080830151608085015260a083015160a085015260c0830151151560c08501528091505092915050565b60006101a08551835260208601516020840152604086015160018060a01b0380821660408601526060880151606086015260808801516080860152865160a0860152602087015160c0860152604087015160e0860152606087015161010086015260808701516101208601528060a088015116610140860152505060c0850151151561016084015280610180840152611aa4818401856119a2565b9695505050505050565b87815260e060208201526000611ac760e083018961195c565b6001600160a01b03979097166040830152506060810194909452608084019290925260a0830152151560c09091015292915050565b6020808252825182820181905260009190848201906040850190845b81811015611b3457835183529284019291840191600101611b18565b50909695505050505050565b634e487b7160e01b600052604160045260246000fd5b600181811c90821680611b6a57607f821691505b602082108103611b8a57634e487b7160e01b600052602260045260246000fd5b50919050565b601f821115610a2a57600081815260208120601f850160051c81016020861015611bb75750805b601f850160051c820191505b81811015611bd657828155600101611bc3565b505050505050565b815167ffffffffffffffff811115611bf857611bf8611b40565b611c0c81611c068454611b56565b84611b90565b602080601f831160018114611c415760008415611c295750858301515b600019600386901b1c1916600185901b178555611bd6565b600085815260208120601f198616915b82811015611c7057888601518255948401946001909101908401611c51565b5085821015611c8e5787850151600019600388901b60f8161c191681555b5050505050600190811b01905550565b634e487b7160e01b600052603260045260246000fd5b634e487b7160e01b600052601160045260246000fd5b600060018201611cdc57611cdc611cb4565b5060010190565b8181038181111561059657610596611cb456fe6659d833875b88922d2576dad6c137a09ba676496bb2010bf8a72397792167a0a26469706673582212201dabd463271367eaff5cc83239c7f4f0ecb133e1c26f37a09788f66aee38981f64736f6c63430008140033",
  "linkReferences": {},
  "deployedLinkReferences": {}
}